:0400000081EF00F09C
:10000800B100B100B100B1004000B1004000B10042
:10001800B100B100B100B100B100B100B100B10050
:10002800B100400040004000B100B100B100B10093
:10003800B100B100B100B100B100B100B100AD0034
:10004800B100B100B100B10040004000B100B10002
:10005800B100B100B1004000B100B100B100B10081
:10006800B100B100B100B100B100B100B100B10000
:10007800B100B100B100B1004000B100B100B10061
:10008800B100B100B100B100B100B100B100B100E0
:10009800467DB100B100B1004000B1004000400011
:1000A800B100B100B100B100B100B100B100B100C0
:1000B800B100B100B100B100B100B100B100B100B0
:1000C800B100B100B100B100B100B100B100B100A0
:1000D800B100B100B100B100B100B100B100B10090
:1000E8004000B100B100B1004000400040004000B5
:1000F800B100B100B100B100FF0000EFF1F0AF0EA8
:100108000501BB6F050EBC6F000EA56F000EA66F34
:10011800ADC5A7F5AEC5A8F5BB0EA96F050EAA6FAC
:1001280027ECFCF01200010E0001D56FD783D4AF85
:10013800A0EF00F0A2EF00F09BEF00F0D793070EBE
:10014800D56FD785D7951200146812C504F513C565
:1001580005F5140E066E050E076E000E096E010EEB
:10016800086EDFECBFF01450120008C504F509C58D
:1001780005F57DECFCF008C504F509C505F5000E8C
:10018800076E010E066E1CEC01F0120008C504F59E
:1001980009C505F5000E076E000E066E1CEC01F091
:1001A80008C504F509C505F583ECFEF01200000E3C
:1001B8000401436F000E446F010E456F476B469173
:1001C800468B468F3F0E0201046F120059FFDF076E
:1001D80061FFDB07FFFFFFFFE4FED9FECEFEC3FE93
:1001E800E9F451FFCF08840E03011A6FA10E1B6FAB
:1001F8000001B38B03011969186BB19EA18E12001F
:100208000401469F469BDFC743F4E0C744F4E1C7B7
:1002180045F4468B468F1200A00E0501AD6FFC0E0B
:10022800AE6F9EC7AFF59FC7B0F583EC00F0120024
:1002380006500710D8B423EF01F026EF01F0C2846E
:1002480027EF01F0C2941200046EB7A22EEF01F05E
:1002580030EF01F029EF01F004C5C9F21200000ED9
:10026800046E000E056E210E066E000E076E12005B
:10027800B6ECFDF0C0ECFEF00701166F1651120047
:100288009EC7AFF69FC7B0F6A4ECECF01200C86AA0
:10029800C96ABE88C698C6921200C868C968C6826C
:1002A800C6881200010E0701CF6F12000701CB2B81
:0E02B800B19E1100A18E1200A19E1200110035
:10F1F20000819FE0FC407E80FC000000000000389F
:10F20200FB9CF6FFFFFFFFFFFFF5FFF0FFF5FF415D
:10F212003D242530325820583D242530325820597B
:10F222003D24253032582053503D24303125303290
:10F23200582050433D2425303458205053523D2409
:10F24200253032580D0A00534420436172643A203B
:10F25200726561643531323A2043524320657272DD
:10F262006F7220282530347820213D2025303478D3
:10F272002C2072657472793D2564290A0D00413D86
:10F28200242530345820583D242530345820593D07
:10F2920024253034582053503D24253034582050F2
:10F2A200433D2425303458205053523D24253032DA
:10F2B200580D0A006469736B5F696F63746C3A205E
:10F2C200706472763D25642C20636D643D25642C48
:10F2D20020627566663D3078256C783A20726573D7
:10F2E2003D25640A0D00534420436172643A202094
:10F2F200726561643531323A20616464723D253849
:10F302006C642C206F6666733D25642C20636F75D8
:10F312006E743D25640A0D00534420436172643AC1
:10F322002077726974653531323A20616464723DC6
:10F3320025386C642C206F6666733D25642C20632F
:10F342006F756E743D25640A0D005344204361724B
:10F35200643A2077726974653531323A20666169A0
:10F362006C656420746F2067657420746F6B656EC2
:10F372002C2074696D656F75740A0D000D0A3C3C92
:10F38200204D455A573635435F52414D20466972EA
:10F392006D77617265204275696C742D696E2063A8
:10F3A2006F6D6D616E64203E3E0D0A005344204332
:10F3B2006172643A2077726974653531323A207429
:10F3C200696D656F75742C20726573706F6E7365ED
:10F3D20020697320253032780A0D0053442043619E
:10F3E20072643A20434D4435382C2052333D253047
:10F3F200327820253032782025303278202530327C
:10F402007820253032780A0D0025733A2045525271
:10F412004F523A20636C6F636B2073706565642092
:10F422002564206973206E6F7420737570706F721B
:10F432007465640A0D00534420436172643A2043A8
:10F442004D44382C2052373D253032782025303239
:10F4520078202530327820253032782025303278D5
:10F462000A0D006469736B5F696F63746C3A207094
:10F472006472763D25642C20636D643D25643A20D8
:10F482004E6F742068616E646C65642E0A0D0064B0
:10F4920069736B5F726561643A2020706472763DB5
:10F4A20025642C20736563746F723D256C642C2077
:10F4B200636F756E743D25640A0D006469736B5F3A
:10F4C20077726974653A20706472763D25642C20E7
:10F4D200736563746F723D256C642C20636F756E67
:10F4E200743D25640A0D004D657A7A616E696E6518
:10F4F2002043617264204D455A573635435F52416D
:10F502004D206669726D7761726520526576322E82
:10F512003000534420436172643A2043435320280D
:10F52200436172642043617061636974792053742A
:10F53200617475732920697320300A0D00534420C9
:10F54200436172643A2077726974653531323A20C8
:10F55200435243206572726F722028726574727909
:10F562003D2564290A0D0020204C4F4144205B4C6C
:10F572003D6C6F61642061646472657373284865D1
:10F5820078295D2066696C65206E616D650D0A00E3
:10F5920020204C53207C20444952205B66696C65D4
:10F5A200206E616D65207C206469726563746F7280
:10F5B20079206E616D650D0A0053442043617264C7
:10F5C2003A204361726420706F77657220757020F3
:10F5D2007374617475732062697320697320300AD1
:10F5E2000D00496E76616C69642820636F6D6D61F0
:10F5F2006E64207C2066696C65207C20646972657B
:10F6020063746F727920290D0A0072656164204D5E
:10F61200425220706172746974696F6E2074616203
:10F622006C6520617420736563746F7220300A0DFB
:10F63200004C6F6164202573203A20416472203DA2
:10F6420020242530366C582C2053697A65203D20C1
:10F6520024253034580D0A00445052203A202425E3
:10F6620030345820504252203A202425303258203B
:10F67200444252203A2024253032580D0A00534485
:10F6820020436172643A2053444843206F722053EE
:10F6920044584320636172642064657465637465D1
:10F6A200640A0D0025733A204552524F523A206D9A
:10F6B2006F6465202564206973206E6F74207375F2
:10F6C20070706F727465640A0D00496E7374616CB8
:10F6D2006C204D6F6E69746F722050726F67726129
:10F6E2006D2E2E2E2E2E2E2E2E2E2E0D0A00534431
:10F6F20020436172643A20696E697469616C697A47
:10F7020065202E2E2E207375636365656465640A19
:10F712000D00534420436172643A20756E6578701F
:10F72200656374656420726573706F6E73652025FE
:10F732003032780A0D004D656D6F727920243030B9
:10F7420030303030202D20242530366C582025646E
:10F75200204B42204F4B0D0A0053442043617264F8
:10F762003A2041434D44343120726573706F6E7399
:10F772006520697320253032780A0D0053442043F6
:10F782006172643A2077726974653531323A207455
:10F792006F6B656E20697320253032780A0D005236
:10F7A200656C6F616420257320666F7220456D75EC
:10F7B2006C6174696F6E204D6F64652E2E2E0D0A7A
:10F7C20000445052203A20242530345820504252CE
:10F7D200203A2024303020444252203A2024303033
:10F7E2000D0A00534420436172643A20434D44356C
:10F7F2003920726573706F6E7365206973202530CE
:10F8020032780A0D00706172746974696F6E2073C8
:10F81200746172747320617420736563746F7220F3
:10F82200256C640A0D0050494320492F4620536835
:10F8320061726564206D656D6F7279203A202425AE
:10F8420030366C580D0A005042523D242530325851
:10F85200204442523D2425303258204450523D2407
:10F86200253034580D0A00665F777269746528295D
:10F872003A204552524F52207265733D25642C2026
:10F882006E3D25640A0D0052656C6F61642025731C
:10F8920020666F72204E6174697665204D6F6465D3
:10F8A2002E2E2E0D0A004E6F74204D455A573635B6
:10F8B200435F52414D20666F726D61742066696CC0
:10F8C200652E0D0A00665F7265616428293A20453B
:10F8D20052524F52207265733D25642C206E3D2595
:10F8E200640A0D006661696C656420746F2077722A
:10F8F20069746520736563746F7220256C640A0DE8
:10F90200000D0A2573203A2053697A65203D202490
:10F91200253034582062797465732E0D0A004649E9
:10F922006C65206C6F61642061646472657373201E
:10F932003A20242530366C580D0A006661696C65E0
:10F942006420746F207265616420736563746F72E2
:10F9520020256C640A0D000A0D5344204361726431
:10F962003A20696E697469616C697A65202E2E2E5F
:10F972000A0D004E6F2050726F6772616D20746FB6
:10F98200207465726D696E6174652E0D0A004661A0
:10F99200696C656420746F206D6F756E74205344BA
:10F9A20020436172642E0A0D005344204361726445
:10F9B2003A2041434D4434312C2052313D253032DE
:10F9C200780A0D006661696C656420746F20726547
:10F9D200616420736563746F7220300A0D000D0A32
:10F9E200417373657274204E4D4920696E7465725D
:10F9F200727570742E0D0A00573635433032202846
:10FA0200456D756C6174696F6E204D6F6465290A6E
:10FA12000D00426F74682057363543303220616ED4
:10FA22006420573635433831360A0D000A4D656D6C
:10FA32006F7279206572726F722061742024253092
:10FA4200366C580A0D007761697420666F722070F7
:10FA5200726F6772616D6D6572202E2E2E0D0A0017
:10FA62006469736B5F696E697469616C697A652830
:10FA72002564292E2E2E0A0D00576F726B206F6E91
:10FA8200206F6E6C7920573635433831362E2E0D65
:10FA92000A0025732066696C65206973206E6F7495
:10FAA20020666F756E642E2E0D0A004D656D6F72A5
:10FAB200792024303030303030202D20242530364B
:10FAC2006C580D00534420436172643A206E6F7487
:10FAD200207375706F70727465640A0D0053442050
:10FAE200436172643A20434D44302C2052313D250B
:10FAF2003032780A0D00257325353373204348458B
:10FB0200434B53554D3A20253032780A0D00496E49
:10FB120076616C6964204D455A57363543206669D3
:10FB22006C652E0D0A0020204344205B64697265D7
:10FB320063746F7279206E616D655D0A0D00706885
:10FB420079736963616C2064726976657220213D04
:10FB520020300A0D000D0A557365204E434F3120A7
:10FB620025322E33664D487A0D0A0A002573203A53
:10FB720020696E76616C69642076616C75652121FD
:10FB82000D0A0020204D44554D5020616464726579
:10FB9200737328486578290D0A0043505520536530
:10FBA2007474696E673A20573635433831360D0A18
:10FBB200000A4D656D6F72792077726170206172F3
:10FBC2006F756E642E0A0D00466C696528257329CF
:10FBD200206C6F6164696E672E2E2E0D0A004350F1
:10FBE200552053657474696E673A20573635433031
:10FBF200320D0A0046696C65204F70656E204572B1
:10FC0200726F722E2025730D0A0057363543383134
:10FC120036204E6174697665206D6F64650A0D0049
:10FC2200665F6C7365656B28293A204552524F52C4
:10FC32002025640A0D006E6F204641543332207035
:10FC42006172746974696F6E0A0D000D0A46696CFF
:10FC520065204F70656E204572726F722E0D0A001C
:10FC6200665F73796E6328293A204552524F5220BB
:10FC720025640A0D004D656D6F72792057726974A3
:10FC820065204572726F720D0A0020202531327391
:10FC920009256C642062797465732E0D0A00526521
:10FCA2006C6F6164206D6F6E69746F722025730DC5
:10FCB2000A004F7065726174696F6E616C204D6FDE
:10FCC2006465203A20006E6F204D425220736967AE
:10FCD2006E61747572650A0D0046696C6520726505
:10FCE2006164206572726F72210D0A0046696C654B
:10FCF200204C6F6164204572726F722E0D0A0046AD
:10FD0200696C652072656164206572726F722E0D76
:10FD12000A00202053484F572066696C65206E61A7
:10FD22006D650D0A004D4E49203A204E6F207375C5
:10FD320070706F72740D0A00495251203A204E6F52
:10FD420020737570706F72742C20005344204361CD
:10FD520072643A2074696D656F75740A0D006E6F76
:10FD62002076616C696420766F6C756D650A0D0092
:10FD72005573696E672042494F532043414C4C0AE8
:10FD82000D00534420436172643A207265616479C4
:10FD92002E0A0D00435354415254203A2024253058
:10FDA20034580D0A00575354415254203A20242506
:10FDB2003034580D0A005350495F53445F636F6EED
:10FDC2006669677572650020204D4F4E49544F5247
:10FDD200205B575D0D0A004D4E49203A2053757045
:10FDE200706F72740D0A00495251203A2053757097
:10FDF200706F72742C20002A2B2C3A3B3C3D3E5BE8
:10FE02005D7C223F7F00202025313273093C44492A
:10FE1200523E0D0A005465726D696E61746520254B
:10FE2200730D0A005245534554204350552E2E2E31
:10FE32000D0A002573203A20242530366C780D0AED
:10FE4200005374616E642D616C6F6E650A0D000D56
:10FE52000A426F6172643A2025730A0D0053797366
:10FE620074656D2073746F702121004E6F205344AE
:10FE720020436172643F0A0D00202048454C502007
:10FE82007C203F0D0A0046696C652054797065201C
:10FE92003A20003C2025732F2573203E0D0A000DC9
:10FEA2000A4C6F61642025730D0A002020435354CD
:10FEB2004152540D0A0020205753544152540D0A06
:10FEC200004D455A5730322E434647004D455A574A
:10FED20031362E434647002F4D4F4E30322E535966
:10FEE20053002F4D4F4E31362E535953003C202F85
:10FEF2002573203E0D0A002020464C4153480D0A2E
:10FF0200004D4F4E49544F520A0D00464154333270
:10FF12002020200025732530366C783A003C2025BD
:10FF220073203E0D0A002020524554490D0A002537
:10FF320073253034783A0020205245470D0A0020BC
:10FF4200253132732020005B253132735D20004D54
:10FF5200455A5736354300434C4B5F494E43005296
:10FF620045515F484452004D4F4E49544F5200286C
:10FF72006E756C6C290043535441525400575354CC
:10FF8200415254002025303278006661743A2000D4
:10FF9200464C415348004D44554D50006275663AF7
:10FFA200200025733E20004D656D2000303A2F2F32
:10FFB200004C4F414400524554490048454C5000C2
:10FFC20053484F570052443A200057523A200053A8
:10FFD200443A2000696E66006E616E00494E46002A
:10FFE2004E614E0052454700444952004F56004C64
:0EFFF2003D004344004C53002573003F0000C7
:020000040001F9
:1000000083C6D9F484C6DAF4DE6ADD6A81C604F5F3
:1000100082C605F582ECD9F004C592F605C593F6C3
:10002000060193BF18EF80F016EF80F01BEF80F011
:100030000B0E6BEF85F0D8909235D96E9335DA6E52
:10004000B70ED926070EDA22DEC4ADF6DDC4AEF651
:10005000AD51AE11D8A42FEF80F031EF80F034EF26
:1000600080F00C0E6BEF85F083C6D9F484C6DAF409
:10007000ADC6DEF4AEC6DDF48591ADC6D9F4AEC62C
:10008000DAF4DF50D8B447EF80F049EF80F070EF3A
:1000900080F020EE01F0AD51D926AE51DA22DF50CA
:1000A00062ECFEF00601A26FA2B159EF80F05BEFA7
:1000B00080F070EF80F08551D8B461EF80F063EF8D
:1000C00080F06DEF80F0A2A568EF80F06AEF80F01D
:1000D0006DEF80F00A0E6BEF85F0000E6BEF85F090
:1000E000ADC6D9F4AEC6DAF4DF6A20EE01F0AD5148
:1000F000D926AE51DA22DF5054ECDAF00601A26FB5
:10010000A2A185EF80F087EF80F08AEF80F0030EE8
:100110006BEF85F08551D8B490EF80F092EF80F0CE
:100120009BEF80F0A2A597EF80F099EF80F09BEF16
:1001300080F06AEF80F0ADC632F6AEC633F6000E40
:10014000356F000E346F87ECD2F032C6ABF633C693
:10015000ACF6040E0601AB19AC11D8A4B2EF80F0D6
:10016000B4EF80F0B7EF80F0010E6BEF85F0AC518B
:1001700009E1020EAB5DD8A0C0EF80F0C2EF80F0C5
:10018000C5EF80F00D0E6BEF85F020EE30F0AD5135
:10019000D926AE51DA22DEC49EF6DEC49FF6DEC456
:1001A000A0F6DEC4A1F63F0EAD25046E000EAE2112
:1001B000056E6CECFFF0020E05180410D8B4E3EFE6
:1001C00080F0E5EF80F0E7EF80F0C2EF80F04A0EBC
:1001D0000601AD25046E000EAE21056E6CECFFF03D
:1001E00004C5A7F605C5A8F60601A96BAA6BA75119
:1001F000A811A911AA11D8A400EF81F002EF81F093
:1002000012EF81F0580EAD25046E000EAE21056E82
:10021000E7ECF2F004C5A7F605C5A8F606C5A9F6F1
:1002200007C5AAF6060120EE1CF0AD51D926AE5145
:10023000DA22A7C6DEF4A8C6DEF4A9C6DEF4AAC692
:10024000DEF420EE44F0AD51D926AE51DA2210EEA4
:1002500003F0AD51E126AE51E222DFC4E7F420EE17
:1002600003F0AD51D926AE51DA22DE04D8B43BEF0B
:1002700081F03DEF81F04EEF81F020EE03F0AD51C3
:10028000D926AE51DA22020EDE18D8B44AEF81F038
:100290004CEF81F04EEF81F0C2EF80F0A7C604F57D
:1002A000A8C605F5A9C606F5AAC607F520EE03F00F
:1002B000AD51D926AE51DA22DF50866F8651086ED5
:1002C000096A0A6A0B6A33ECFBF004C5A7F605C598
:1002D000A8F606C5A9F607C5AAF6060120EE41F064
:1002E000AD51D926AE51DA22DF50866F876B20EEF2
:1002F0000AF0AD51D926AE51DA2286C6DEF487C6A1
:10030000DDF420EE0AF0AD51D926AE51DA22DE50EE
:10031000DE10D8B48EEF81F090EF81F0C2EF80F064
:1003200020EE0AF0AD51D926AE51DA22DEC486F6AF
:10033000DDC487F620EE0AF0AD51D926AE51DA229F
:10034000DEC488F6DDC489F6FF0E88258A6FFF0EAD
:1003500089218B6F86518A158C6F87518B158D6F14
:100360008C518D11D8B4B7EF81F0B9EF81F0BBEFAC
:1003700081F0C2EF80F0450EAD25046E000EAE2177
:10038000056E6CECFFF0060120EE08F0AD51D926A9
:10039000AE51DA2204C5DEF405C5DDF420EE08F026
:1003A000AD51D926AE51DA22DEC486F6DDC487F619
:1003B0000F0E8617000E871786518711D8B4E3EF0A
:1003C00081F0E5EF81F0E7EF81F0C2EF80F0470EBA
:1003D000AD25046E000EAE21056E6CECFFF004C579
:1003E0009AF605C59BF606019C6B9D6B9A519B1175
:1003F0009C119D11D8A4FFEF81F001EF82F011EF65
:1004000082F0540EAD25046E000EAE21056EE7ECB1
:10041000F2F004C59AF605C59BF606C59CF607C51D
:100420009DF6420E0601AD25046E000EAE21056E4E
:100430006CECFFF004C598F605C599F606019851D5
:100440009911D8A426EF82F028EF82F02AEF82F0EB
:10045000C2EF80F020EE08F0AD51D926AE51DA227D
:10046000DEC486F6DDC487F6040E886FD890873325
:100470008633882F36EF82F098518625896F9951FF
:1004800087218A6F8B6BD8B08B2B8C6BA7518925FA
:10049000946FA8518A21956FA9518B21966FAA510B
:1004A0008C21976F94519A5D95519B5996519C5907
:1004B00097519D59D8B05FEF82F061EF82F063EF02
:1004C00082F0C2EF80F094519A5D046E95519B5971
:1004D000056E96519C59066E97519D59076E20EEF8
:1004E0000AF0AD51D926AE51DA22DEC486F6DDC45B
:1004F00087F686C608F587C609F50A6A0B6A9EEC78
:10050000F5F004C5A3F605C5A4F606C5A5F607C50E
:10051000A6F60601A351A411A511A611D8A493EF24
:1005200082F095EF82F097EF82F0C2EF80F0000E3C
:10053000AC6F000EAB6FF60EA35DFF0EA459FF0E5D
:10054000A5590F0EA659D8B0A8EF82F0AAEF82F0F5
:10055000AEEF82F0000EAC6F030EAB6FA651A5118B
:1005600009E1F60EA35DFF0EA459D8B0BAEF82F0F0
:10057000BCEF82F0C0EF82F0000EAC6F020EAB6FEA
:10058000A651A51109E1F60EA35D0F0EA459D8B02E
:10059000CCEF82F0CEEF82F0D2EF82F0000EAC6FA3
:1005A000010EAB6FAB51AC11D8A4D9EF82F0DBEFE9
:1005B00082F0DDEF82F0C2EF80F0020EA325866F9D
:1005C000000EA421876F000EA521886F000EA621C2
:1005D000896F20EE18F0AD51D926AE51DA2286C6C9
:1005E000DEF487C6DEF488C6DEF489C6DEF420EECB
:1005F00020F0AD51D926AE51DA229EC6DEF49FC658
:10060000DEF4A0C6DEF4A1C6DEF498519E25866F06
:1006100099519F21876F000EA021886F000EA121A4
:10062000896F20EE24F0AD51D926AE51DA2286C66C
:10063000DEF487C6DEF488C6DEF489C6DEF49451A3
:100640009E25866F95519F21876F9651A021886FB7
:100650009751A121896F20EE2CF0AD51D926AE51D2
:10066000DA2286C6DEF487C6DEF488C6DEF489C6E2
:10067000DEF4030EAB19AC11D8A441EF83F043EFC5
:1006800083F0A0EF83F05E0EAD25046E000EAE2168
:10069000056E6CECFFF004500510D8B452EF83F0F7
:1006A00054EF83F056EF83F0C2EF80F0060120EEA6
:1006B00008F0AD51D926AE51DA22DE50DE10D8B4A2
:1006C00064EF83F066EF83F068EF83F0C2EF80F0B1
:1006D000600EAD25046E000EAE21056EE7ECF2F063
:1006E000060120EE28F0AD51D926AE51DA2204C51C
:1006F000DEF405C5DEF406C5DEF407C5DEF420EE43
:1007000018F0AD51D926AE51DA22DEC486F6DEC429
:1007100087F6DEC488F6DEC489F6020ED8908637E6
:10072000873788378937E82E8EEF83F086C68EF6B6
:1007300087C68FF688C690F689C691F640EF84F09A
:1007400020EE08F0AD51D926AE51DA22DE50DE108F
:10075000D8A4ADEF83F0AFEF83F0B1EF83F0C2EF39
:1007600080F020EE24F0AD51D926AE51DA22DEC45D
:1007700086F6DEC487F6DEC488F6DEC489F6A751A5
:1007800086258A6FA85187218B6FA95188218C6F8C
:10079000AA5189218D6F20EE28F0AD51D926AE5196
:1007A000DA228AC6DEF48BC6DEF48CC6DEF48DC691
:1007B000DEF4020EAB19AC11D8B4E1EF83F0E3EF35
:1007C00083F029EF84F020EE18F0AD51D926AE5118
:1007D000DA22DEC486F6DEC487F6DEC488F6DEC41E
:1007E00089F6010E86158A6F000E87158B6F000E35
:1007F00088158C6F000E89158D6F20EE18F0AD51A5
:10080000D926AE51DA22DEC404F5DEC405F5DEC415
:1008100006F5DEC407F5030E086E000E096E000E25
:100820000A6E000E0B6E33ECFBF0D89007320632E6
:100830000532043206018A5104248E6F8B51052043
:100840008F6F8C510620906F8D510720916F40EF74
:1008500084F020EE18F0AD51D926AE51DA22DEC474
:1008600086F6DEC487F6DEC488F6DEC489F6D89044
:1008700086358E6F87358F6F8835906F8935916F8C
:10088000FF0E8E25866F010E8F21876F000E90213F
:10089000886F000E9121896F0A0E54EF84F0D89072
:1008A0008933883387338633E82E4FEF84F020EE88
:1008B0001CF0AD51D926AE51DA228651DE5C87514B
:1008C000DE588851DE588951DE58D8B06AEF84F07E
:1008D0006CEF84F06EEF84F0C2EF80F020EE10F049
:1008E000AD51D926AE51DA22FF0EDE6EFF0EDE6E5E
:1008F000FF0EDE6EFF0EDD6EDD52DD5210EE0CF0EF
:10090000AD51E126AE51E222DEC4E6F4DEC4E6F4E7
:10091000DEC4E6F4DEC4E6F420EE05F0AD51D926DF
:10092000AE51DA22800EDF6E030EAB19AC11D8A4E3
:100930009CEF84F09EEF84F04BEF85F0640EAD25C4
:10094000046E000EAE21056E6CECFFF00404051081
:10095000D8A4ADEF84F0AFEF84F04BEF85F0ADC6D7
:100960001AF6AEC61BF6010E06019E251C6F000E80
:100970009F211D6F000EA0211E6F000EA1211F6F71
:10098000CBECEFF00009D8A4C8EF84F0CAEF84F0F4
:100990004BEF85F0060120EE05F0AD51D926AE51A2
:1009A000DA22DF6A320EAD25046E020EAE21056E2C
:1009B0006CECFFF0550E041807E1AA0E0518D8A438
:1009C000E4EF84F0E6EF84F04BEF85F0340E06019F
:1009D000AD25046E000EAE21056EE7ECF2F0520E6E
:1009E00004180DE1520E05180AE1610E061807E120
:1009F000410E0718D8A4FFEF84F001EF85F04BEF0C
:100A000085F0180E0601AD25046E020EAE21056EAE
:100A1000E7ECF2F0720E04180DE1720E05180AE10F
:100A2000410E061807E1610E0718D8A41AEF85F0E9
:100A30001CEF85F04BEF85F01C0E0601AD25046E12
:100A4000020EAE21056EE7ECF2F0060120EE10F08A
:100A5000AD51D926AE51DA2204C5DEF405C5DEF467
:100A600006C5DEF407C5DEF4200EAD25046E020EC9
:100A7000AE21056EE7ECF2F0060120EE0CF0AD5170
:100A8000D926AE51DA2204C5DEF405C5DEF406C56A
:100A9000DEF407C5DEF4ADC6D9F4AEC6DAF4ABC6F3
:100AA000DFF40701B54BB62B060120EE06F0AD5181
:100AB000D926AE51DA22B5C7DEF4B6C7DDF420EE92
:100AC00014F0AD51D926AE51DA22DE6ADE6ADE6A52
:100AD000DD6A6DEF80F012000501886B62C589F553
:100AE00063C58AF564C58BF565C58CF58CBF7DEF54
:100AF00085F07BEF85F091EF85F0010E886F89C559
:100B000004F58AC505F58BC506F58CC507F550ECCF
:100B1000FFF004C589F505C58AF506C58BF507C53F
:100B20008CF5000E05018E6F000E8D6FB1C77CF540
:100B3000B2C77DF58851D8B4A0EF85F0A2EF85F05B
:100B4000B6EF85F08851D8A4A8EF85F0AAEF85F01C
:100B5000B0EF85F0000E6E6F2B0E6D6FB4EF85F069
:100B6000000E6E6F2D0E6D6F6DC588F589C504F58D
:100B70008AC505F58BC506F58CC507F52FECEBF09E
:100B800004040510D8A4C7EF85F0C9EF85F0FCEF89
:100B900085F005018851D8B4D0EF85F0D2EF85F00B
:100BA000DBEF85F088C528F87C07D8A07D07000E0C
:100BB0008E6F010E8D6F280E8D25046E080E8E210E
:100BC000056ED60E066EFF0E076EDEECFEF005011A
:100BD000FD0E7C27FF0E7D2360C515F561C516F55A
:100BE000280E176E080E186E7CC519F57DC51AF50E
:100BF0003FECF6F09BEF8AF089C504F58AC505F550
:100C00008BC506F58CC507F52FECEBF004500510ED
:100C1000D8A40DEF86F00FEF86F02FEF86F00501D8
:100C20008851D8B416EF86F018EF86F021EF86F0E1
:100C300088C528F87C07D8A07D07000E8E6F010EAE
:100C40008D6F280E8D25046E080E8E21056EDA0E2E
:100C5000066EFF0E076EDEECFEF0E7EF85F0000E8D
:100C600005018F6F000E906F800E916F3F0E926F97
:100C7000000E776F000E766F89C504F58AC505F5FD
:100C80008BC506F58CC507F5000E086E000E096EC3
:100C9000000E0A6E000E0B6EA1ECF4F0D8B053EF0C
:100CA00086F055EF86F034EF87F062EF86F078C576
:100CB0008FF579C590F57AC591F57BC592F505015B
:100CC000764B772B8FC512F590C513F591C514F5AA
:100CD00092C515F5000E166E000E176E200E186EDA
:100CE000410E196EE4ECB2F012C578F513C579F532
:100CF00014C57AF515C57BF505017851895D046E3B
:100D000079518A59056E7A518B59066E7B518C59EF
:100D1000076E52ECFCF007BE99EF86F00750061004
:100D2000051009E1020E045CD8A099EF86F09BEF54
:100D300086F057EF86F078C52BF579C52CF57AC586
:100D40002DF57BC52EF589C52FF58AC530F58BC5E8
:100D500031F58CC532F5AEECE9F0D8A0B2EF86F0F3
:100D6000B4EF86F057EF86F005018F51895D046E70
:100D700090518A59056E91518B59066E92518C593A
:100D8000076E52ECFCF007BED3EF86F0075006105A
:100D9000051007E1020E045CD8B0D1EF86F0D3EF66
:100DA00086F01BEF87F08FC589F590C58AF591C550
:100DB0008BF592C58CF534EF87F08FC52BF590C578
:100DC0002CF591C52DF592C52EF5000E2F6E000E57
:100DD000306E200E316E410E326EAAECBAF02BC589
:100DE0008FF52CC590F52DC591F52EC592F5050111
:100DF0007607D8A077078F51895D046E90518A5984
:100E0000056E91518B59066E92518C59076E52ECBA
:100E1000FCF007BE19EF87F007500610051007E138
:100E2000020E045CD8B017EF87F019EF87F01BEFC4
:100E300087F0D3EF86F089C52BF58AC52CF58BC5D5
:100E40002DF58CC52EF58FC52FF590C530F591C5C4
:100E500031F592C532F5AEECE9F0D8A032EF87F06B
:100E600034EF87F0DDEF86F066C570F570C571F57B
:100E70005BBE3DEF87F03FEF87F045EF87F05AC547
:100E800069F55BC56AF54AEF87F0000E05016A6FE8
:100E9000060E696F69C574F56AC575F50501744B71
:100EA000752B660E7119D8A458EF87F05AEF87F0AA
:100EB0007AEF87F077BF61EF87F05FEF87F06DEF34
:100EC00087F0000E8F6F000E906F800E916F3F0EB7
:100ED000926F000E776F000E766F670E7019D8B4A0
:100EE00074EF87F076EF87F07AEF87F0765174270A
:100EF00077517523000E876F000E866F89C57EF5CA
:100F00008AC57FF58BC580F58CC581F58FC578F5D1
:100F100090C579F591C57AF592C57BF50BEF88F010
:100F20007EC52BF57FC52CF580C52DF581C52EF529
:100F30008FC52FF590C530F591C531F592C532F5C5
:100F4000AAECBAF02BC544F52CC545F52DC546F5E0
:100F50002EC547F582ECD0F044C582F545C583F532
:100F600046C584F547C585F582C504F583C505F5F5
:100F700084C506F585C507F5A9ECE8F004C572F54A
:100F800005C573F57EC52BF57FC52CF580C52DF500
:100F900081C52EF582C516F583C517F584C518F5EC
:100FA00085C519F58FC512F590C513F591C514F5D2
:100FB00092C515F5E4ECB2F012C52FF513C530F566
:100FC00014C531F515C532F5D9ECFDF02BC57EF50C
:100FD0002CC57FF52DC580F52EC581F58FC52BF568
:100FE00090C52CF591C52DF592C52EF5000E2F6EEE
:100FF000000E306E200E316E410E326EAAECBAF049
:101000002BC58FF52CC590F52DC591F52EC592F504
:101010000501864B872B7451865D8751800A586E77
:101020007551800A5858D8A018EF88F01AEF88F048
:1010300090EF87F08FC512F590C513F591C514F5A3
:1010400092C515F5000E166E000E176EA00E186EE6
:10105000400E196EE4ECB2F012C582F513C583F5AB
:1010600014C584F515C585F57EC52BF57FC52CF512
:1010700080C52DF581C52EF582C52FF583C530F5C8
:1010800084C531F585C532F5AEECE9F0D8B04BEF4B
:1010900088F04DEF88F058EF88F0000E0501826F60
:1010A000000E836F000E846F000E856F81EF88F055
:1010B0007EC504F57FC505F580C506F581C507F534
:1010C00082C508F583C509F584C50AF585C50BF504
:1010D000A1ECF4F0D8A06FEF88F071EF88F081EF09
:1010E00088F0050172B177EF88F079EF88F081EF31
:1010F00088F0000E826F000E836F000E846F000E6A
:10110000856F89C504F58AC505F58BC506F58CC5BF
:1011100007F582C508F583C509F584C50AF585C5B7
:101120000BF538ECA5F004C57EF505C57FF506C5C1
:1011300080F507C581F57EC52BF57FC52CF580C5EB
:101140002DF581C52EF5000E166E000E176E200EC1
:10115000186E410E196E78C512F579C513F57AC56A
:1011600014F57BC515F5E4ECB2F012C52FF513C5E7
:1011700030F514C531F515C532F5AEECE9F0D8A05F
:10118000C4EF88F0C6EF88F0EFEF88F00501764BEA
:10119000772B78C512F579C513F57AC514F57BC59B
:1011A00015F5000E166E000E176E200E186E410E0D
:1011B000196EE4ECB2F012C578F513C579F514C5D3
:1011C0007AF515C57BF5660E05017119D8A4EBEF0C
:1011D00088F0EDEF88F0EFEF88F0744B752B78C551
:1011E0008FF579C590F57AC591F57BC592F576C5F1
:1011F00067F577C568F505016F6B000E6C6F000E23
:101200006B6F000E876F000E866FECEF89F07EC566
:101210002BF57FC52CF580C52DF581C52EF58FC525
:101220002FF590C530F591C531F592C532F5AAEC90
:10123000BAF02BC544F52CC545F52DC546F52EC590
:1012400047F582ECD0F044C582F545C583F546C527
:1012500084F547C585F582C504F583C505F584C5C4
:1012600006F585C507F5A9ECE8F005BE43EF89F062
:10127000055007E10A0E045CD8B041EF89F043EF56
:1012800089F053EF89F082C504F583C505F584C55F
:1012900006F585C507F5A9ECE8F004C572F505C5A6
:1012A00073F558EF89F0000E0501736F090E726F28
:1012B00005016F51D8A45FEF89F061EF89F089EFE4
:1012C00089F068BF68EF89F066EF89F089EF89F0EF
:1012D000280E8D25D96E080E8E21DA6E2E0EDF6E49
:1012E0008D4B8E2B7C07D8A07D07010E6F6F89EF89
:1012F00089F0280E8D25D96E080E8E21DA6E300EFB
:10130000DF6E8D4B8E2B7C07D8A07D076B07D8A096
:101310006C076B516C11D8A490EF89F092EF89F0B3
:1013200079EF89F0280E8D25D96E080E8E21DA6EA0
:101330007251300FDF6E8D4B8E2B7C07D8A07D074E
:101340007EC52BF57FC52CF580C52DF581C52EF505
:1013500082C516F583C517F584C518F585C519F539
:101360008FC512F590C513F591C514F592C515F505
:10137000E4ECB2F012C52FF513C530F514C531F504
:1013800015C532F5D9ECFDF02BC57EF52CC57FF5E2
:101390002DC580F52EC581F58FC52BF590C52CF593
:1013A00091C52DF592C52EF5000E2F6E000E306EF4
:1013B000200E316E410E326EAAECBAF02BC58FF5BD
:1013C0002CC590F52DC591F52EC592F50501670741
:1013D000D8A06807864B872B7451865D8751800A99
:1013E000586E7551800A5858D8B0F9EF89F0FBEF64
:1013F00089F009EF8AF08EBF07EF8AF08E5109E17C
:101400004B0E8D5DD8A007EF8AF009EF8AF007EF49
:1014100089F0000E876F4F0E866F280E8625D96ED5
:10142000080E8721DA6EDF6A280E586E080E596E94
:101430008D51585E8E51595A86515824046E8751E9
:101440005920056E280E066E080E076E8DC508F52C
:101450008EC509F520ECFDF005018D51865D8D6F7F
:101460008E5187598E6F8851D8A439EF8AF03CEF9E
:101470008AF0010E3DEF8AF0000E866F876B5CA24A
:1014800044EF8AF046EF8AF074EF8AF056EF8AF064
:101490008D07D8A08E07280E8D25D96E080E8E21B7
:1014A000DA6E300EDF6E7C07D8A07D077C51865D3A
:1014B0008751800A586E7D51800A5858D8B063EF22
:1014C0008AF065EF8AF074EF8AF08D51865D87515E
:1014D000800A586E8E51800A5858D8A072EF8AF050
:1014E00074EF8AF048EF8AF08851D8B47AEF8AF026
:1014F0007CEF8AF087EF8AF08D07D8A08E07280E40
:101500008D25D96E080E8E21DA6E88C5DFF48651DE
:101510007C5F87517D5B60C515F561C516F5280EAA
:101520008D25176E080E8E21186E7CC519F57DC5A8
:101530001AF53FECF6F0120064C67BF665C67CF641
:1015400068C6D9F469C6DAF4DE6ADD6A62C6BEF539
:1015500063C6BFF58B0E0501C06F060EC16F30EC80
:10156000EAF006017A6F7A51D8A4B9EF8AF0BBEF9E
:101570008AF0CBEF8AF020EE0FF06251D92663514A
:10158000DA22DF507A6F7A51D8B4C9EF8AF0CBEF04
:101590008AF0CEEF8AF07A51D9EF8EF020EE0EF07D
:1015A0006251D9266351DA22DFB2D9EF8AF0DBEF3C
:1015B0008AF0DEEF8AF0070ED9EF8EF020EE10F001
:1015C0006251D9266351DA2210EE10F06251E12601
:1015D0006351E222E6C46EF6E6C46FF6E6C470F626
:1015E000E6C471F666516E25726F67516F21736F95
:1015F000000E7021746F000E7121756FDE50725DE8
:10160000DE507359DE507459DE507559D8B00BEF67
:101610008BF00DEF8BF01BEF8BF020EE10F0625192
:10162000D9266351DA22DEC46AF6DDC46BF66A1D80
:10163000666F6B1D676F66516711D8A422EF8BF040
:1016400024EF8BF026EF8BF0D0EF8EF020EE10F031
:101650006251D9266351DA22FF0EDE146A6F010E41
:10166000DE146B6F000EDE146C6F000EDE146D6FF7
:101670006A516B116C116D11D8A441EF8BF043EFDF
:101680008BF014EF8EF020EE10F06251D9266351EA
:10169000DA22DEC46AF6DEC46BF6DEC46CF6DEC4A3
:1016A0006DF60A0E59EF8BF0D8906D336C336B33B7
:1016B0006A33E82E54EF8BF020EE0AF08B51D926D6
:1016C0008C51DA22DEC46EF6DDC46FF6FF0E6E2595
:1016D000706FFF0E6F21716F6A5170157D6F6B51C6
:1016E00071157E6F7D517E11D8A479EF8BF07BEF61
:1016F0008BF043EF8CF020EE10F06251D92663514D
:10170000DA22DE50DE10DE10DE10D8A48AEF8BF075
:101710008CEF8BF0BDEF8BF020EE06F06251D926F6
:101720006351DA22DEC481F6DEC482F6DEC483F6BB
:10173000DEC484F68151821183118411D8A4A3EFF1
:101740008BF0A5EF8BF0D9EF8BF062C645F663C640
:1017500046F6000E476F000E486F000E496F000EF0
:101760004A6F7CEC9DF045C681F646C682F647C6B8
:1017700083F648C684F6D9EF8BF062C645F663C699
:1017800046F620EE14F06251D9266351DA22DEC407
:1017900047F6DEC448F6DEC449F6DEC44AF67CEC01
:1017A0009DF045C681F646C682F647C683F648C612
:1017B00084F606018151821183118411D8A4E3EFCC
:1017C0008BF0E5EF8BF0E7EF8BF0D0EF8EF081053B
:1017D000821183118411D8A4F0EF8BF0F2EF8BF01B
:1017E000FDEF8BF020EE0FF06251D9266351DA2223
:1017F000020EDF6E020ED9EF8EF081290AE18229F6
:1018000008E1832906E18429D8A409EF8CF00BEFC5
:101810008CF016EF8CF020EE0FF06251D926635158
:10182000DA22010EDF6E010ED9EF8EF020EE14F0F9
:101830006251D9266351DA2281C6DEF482C6DEF413
:1018400083C6DEF484C6DEF420EE06F06251D926AB
:101850006351DA22DE50DE10DE10DE10D8A433EF42
:101860008CF035EF8CF043EF8CF020EE06F06251F7
:10187000D9266351DA2281C6DEF482C6DEF483C63D
:10188000DEF484C6DEF420EE0EF06251D9266351F8
:10189000DA22DFAE4EEF8CF050EF8CF08DEF8CF053
:1018A000220E6225006F000E6321016F20EE18F0FA
:1018B0006251D9266351DA22DEC402F6DEC403F691
:1018C000DEC404F6DEC405F6000E076F010E066FD7
:1018D00020EE01F08B51D9268C51DA22DF509EEC9C
:1018E000F3F00009D8B477EF8CF079EF8CF084EF47
:1018F0008CF0060120EE0FF06251D9266351DA22F6
:10190000010EDF6E13EF8CF0060120EE0EF0625137
:10191000D9266351DA227F0EDF168BC610F58CC6EE
:1019200011F520EE14F06251D9266351DA22DEC49B
:1019300012F5DEC413F5DEC414F5DEC415F59AEC19
:10194000F0F010C587F611C588F612C589F613C5E3
:101950008AF606018751881189118A11D8A4B3EF3C
:101960008CF0B5EF8CF0BFEF8CF020EE0FF06251F1
:10197000D9266351DA22020EDF6EFAEF8BF07D5129
:1019800087277E518823000E8923000E8A2366C68E
:101990006AF667C66BF6090E6C6FD8906B336A33C4
:1019A0006C2FCDEF8CF06AC67FF66BC680F67F5148
:1019B0008011D8B4DEEF8CF0E0EF8CF0A4EF8DF066
:1019C0007F517D256A6F80517E216B6F20EE0AF07A
:1019D0008B51D9268C51DA226A51DE5C6B51DE586C
:1019E000D8B0F5EF8CF0F7EF8CF007EF8DF020EE2C
:1019F0000AF08B51D9268C51DA22DEC46AF6DDC496
:101A00006BF67D516A5D7F6F7E516B59806F7BC62F
:101A100000F67CC601F687C602F688C603F689C6BC
:101A200004F68AC605F67FC606F680C607F620EEDF
:101A300001F08B51D9268C51DA22DF509EECF3F065
:101A40000009D8B426EF8DF028EF8DF033EF8DF03C
:101A5000060120EE0FF06251D9266351DA22010E01
:101A6000DF6E13EF8CF006017F516A6F80516B6F50
:101A70006C6B6D6B20EE18F06251D9266351DA223F
:101A8000DEC46EF6DEC46FF6DEC470F6DEC471F638
:101A900087516E5D726F88516F59736F895170599C
:101AA000746F8A517159756F6A51725D6B517359B8
:101AB0006C5174596D517559D8B061EF8DF063EF69
:101AC0008DF093EF8DF0220E6225046E000E6321DF
:101AD000056E20EE18F06251D9266351DA22DEC479
:101AE0006AF6DDC46BF687516A5F88516B5B090E3D
:101AF000D8906A376B37E82E78EF8DF06A517B25E6
:101B0000066E6B517C21076E020E096E000E086E88
:101B100020ECFDF0060120EE0EF06251D926635153
:101B2000DA227F0EDF167FC66AF680C66BF6090ED4
:101B3000D8906A376B37E82E98EF8DF06AC685F635
:101B40006BC686F66AEF8EF020EE18F06251D92649
:101B50006351DA228751DE180FE18851DE180CE15B
:101B60008951DE1809E18A51DE18D8B4BAEF8DF038
:101B7000BCEF8DF005EF8EF020EE0AF06251D92611
:101B80006351DA2210EE10F06251E1266351E22235
:101B9000DE50E65CDE50E658DE50E658DE50E65891
:101BA000D8B0D5EF8DF0D7EF8DF005EF8EF0220E87
:101BB0006225006F000E6321016F87C602F688C69A
:101BC00003F689C604F68AC605F6000E076F010EF5
:101BD000066F20EE01F08B51D9268C51DA22DF50AE
:101BE000F5ECF3F00009D8B4F8EF8DF0FAEF8DF0D2
:101BF00005EF8EF0060120EE0FF06251D9266351F9
:101C0000DA22010EDF6E13EF8CF0060120EE18F0E1
:101C10006251D9266351DA2287C6DEF488C6DEF423
:101C200089C6DEF48AC6DEF420EE10F06251D926B1
:101C30006351DA22DEC46AF6DDC46BF6FF0E6A1564
:101C40006C6F010E6B156D6F6C510008856F6D51D7
:101C5000D8A0E82A0208866F8551665D86516759CB
:101C6000D8B035EF8EF037EF8EF03BEF8EF066C6D2
:101C700085F667C686F620EE10F06251D9266351CC
:101C8000DA22DEC46AF6DDC46BF6FF0E6A156C6FED
:101C9000010E6B156D6F6C5162256E6F6D51632176
:101CA0006F6F220E6E25046E000E6F21056E7BC6CF
:101CB00006F57CC607F585C608F586C609F520EC4D
:101CC000FDF0060120EE0EF06251D9266351DA22B2
:101CD000000EDB8E8551665F8651675B68C6D9F45E
:101CE00069C6DAF48551DE268651DD2285517B27CF
:101CF00086517C2320EE10F06251D9266351DA22FE
:101D00008551DE268651DE22000EDE22DE2220EE06
:101D100010F06251D9266351DA2210EE0AF06251B6
:101D2000E1266351E222DE50E65CDE50E658DE50EA
:101D3000E658DE50E658D8A0A0EF8EF0A2EF8EF065
:101D4000B2EF8EF020EE0AF06251D9266351DA220A
:101D5000DEC476F6DEC477F6DEC478F6DEC479F645
:101D6000C0EF8EF020EE10F06251D9266351DA22D6
:101D7000DEC476F6DEC477F6DEC478F6DEC479F625
:101D800020EE0AF06251D9266351DA2276C6DEF4DB
:101D900077C6DEF478C6DEF479C6DEF41BEF8BF08E
:101DA00020EE0EF06251D9266351DA22000EDB8C50
:101DB000000E120062C6BEF563C6BFF5850E0501B2
:101DC000C06F060EC16F30ECEAF00601806F8051E3
:101DD000D8A4EDEF8EF0EFEF8EF0F7EF8EF020EE5F
:101DE0000FF06251D9266351DA22DF50806F8051A3
:101DF000D8B4FDEF8EF0FFEF8EF002EF8FF0805140
:101E0000DAEF92F020EE0AF06251D9266351DA221D
:101E10006451DE5C6551DE586651DE586751DE580C
:101E2000D8B015EF8FF017EF8FF032EF8FF020EE74
:101E30000EF06251D9266351DA22DFB222EF8FF021
:101E400024EF8FF032EF8FF020EE0AF06251D926A6
:101E50006351DA22DEC464F6DEC465F6DEC466F6DB
:101E6000DEC467F620EE10F06251D9266351DA2203
:101E7000DEC478F6DEC479F6DEC47AF6DEC47BF61C
:101E8000000E7C6F000E7D6F000E7E6F000E7F6F68
:101E900020EE10F06251D9266351DA227CC6DEF4BE
:101EA0007DC6DEF47EC6DEF47FC6DEF464516511C5
:101EB00066116711D8B45FEF8FF061EF8FF0E5EF37
:101EC00091F020EE0AF08551D9268651DA22DEC43F
:101ED00068F6DDC469F668516A6F69516B6F6C6BA7
:101EE0006D6B090ED8906A376B376C376D37E82EFB
:101EF00072EF8FF06AC681F66BC682F66CC683F607
:101F00006DC684F6785179117A117B11D8B48BEFB4
:101F10008FF08DEF8FF02AEF90F0FF0E6425046EA6
:101F2000FF0E6521056EFF0E6621066EFF0E67210E
:101F3000076E81C608F582C609F583C60AF584C610
:101F40000BF59EECF5F004C568F605C569F606C507
:101F50006AF607C56BF6FF0E06017825046EFF0EC4
:101F60007921056EFF0E7A21066EFF0E7B21076E2A
:101F700081C608F582C609F583C60AF584C60BF545
:101F80009EECF5F004500601685D05506959065055
:101F90006A5907506B59D8A0D0EF8FF0D2EF8FF06D
:101FA0002AEF90F0FF0E8125686FFF0E8221696F86
:101FB000FF0E83216A6FFF0E84216B6F681D6C6FAB
:101FC000691D6D6F6A1D6E6F6B1D6F6FFF0E78253B
:101FD000706FFF0E7921716FFF0E7A21726FFF0E05
:101FE0007B21736F6C517015746F6D517115756F26
:101FF0006E517215766F6F517315776F20EE10F07A
:102000006251D9266351DA2274C6DEF475C6DEF455
:1020100076C6DEF477C6DEF420EE10F06251D926E3
:102020006351DA22DE50645FDE50655BDE50665B32
:10203000DD50675B20EE14F06251D9266351DA223D
:10204000DEC487F6DEC488F6DEC489F6DEC48AF60E
:10205000A5EF90F020EE06F06251D9266351DA2206
:10206000DEC487F6DEC488F6DEC489F6DEC48AF6EE
:102070008751881189118A11D8A441EF90F043EF5C
:1020800090F097EF90F062C645F663C646F6000EF4
:10209000476F000E486F000E496F000E4A6F7CECD0
:1020A0009DF045C687F646C688F647C689F648C6F7
:1020B0008AF606018705881189118A11D8A463EF71
:1020C00090F065EF90F070EF90F020EE0FF062511D
:1020D000D9266351DA22020EDF6E020EDAEF92F099
:1020E00087290AE1882908E1892906E18A29D8A4F3
:1020F0007CEF90F07EEF90F089EF90F020EE0FF003
:102100006251D9266351DA22010EDF6E010EDAEF39
:1021100092F020EE06F06251D9266351DA2287C68A
:10212000DEF488C6DEF489C6DEF48AC6DEF420EE6C
:1021300014F06251D9266351DA2287C6DEF488C6CC
:10214000DEF489C6DEF48AC6DEF48751881189116F
:102150008A11D8B4AEEF90F0B0EF90F0E5EF91F0C7
:102160006AEF91F08151645F8251655B8351665BD8
:102170008451675B20EE10F06251D9266351DA2258
:102180008151DE268251DE228351DE228451DE22FD
:1021900020EE0EF06251D9266351DA22DFA2D3EF8E
:1021A00090F0D5EF90F001EF91F062C645F663C66E
:1021B00046F687C647F688C648F689C649F68AC6EF
:1021C0004AF67CEC9DF045C687F646C688F647C6BB
:1021D00089F648C68AF606018751881189118A1145
:1021E000D8A4F5EF90F0F7EF90F017EF91F0000E14
:1021F000646F000E656F000E666F000E676F79EFFB
:1022000091F062C624F663C625F687C626F688C610
:1022100027F689C628F68AC629F6F7ECB4F024C654
:1022200087F625C688F626C689F627C68AF60601E9
:1022300087290AE1882908E1892906E18A29D8A4A1
:1022400024EF91F026EF91F030EF91F020EE0FF0B7
:102250006251D9266351DA22010EDF6E86EF90F0CB
:102260008A518911881109E1020E875DD8A03BEFE0
:1022700091F03DEF91F052EF91F020EE18F0855182
:10228000D9268651DA22DE50875DDE508859DE502D
:102290008959DE508A59D8A050EF91F052EF91F051
:1022A0005CEF91F020EE0FF06251D9266351DA22F3
:1022B000020EDF6E6DEF90F020EE14F06251D92621
:1022C0006351DA2287C6DEF488C6DEF489C6DEF4FE
:1022D0008AC6DEF46451815D655182596651835925
:1022E00067518459D8A077EF91F079EF91F0B2EF70
:1022F00090F020EE10F06251D9266351DA22645139
:10230000DE266551DE226651DE226751DE22FF0E97
:102310006415686F010E6515696F000E66156A6FAA
:10232000000E67156B6F685169116A116B11D8B493
:102330009CEF91F09EEF91F0E5EF91F085C610F5DE
:1023400086C611F587C612F588C613F589C614F539
:102350008AC615F59AECF0F010C57CF611C57DF62D
:1023600012C57EF613C57FF606017C517D117E11E4
:102370007F11D8A4BEEF91F0C0EF91F0CAEF91F0B9
:1023800020EE0FF06251D9266351DA22020EDF6E81
:102390006DEF90F064C668F665C669F666C66AF6C3
:1023A00067C66BF60A0EDAEF91F0D8906B336A339A
:1023B00069336833E82ED5EF91F068517C27695175
:1023C0007D236A517E236B517F2320EE10F06251F2
:1023D000D9266351DA2210EE0AF06251E1266351E8
:1023E000E222DE50E65CDE50E658DE50E658DE5073
:1023F000E658D8B0FEEF91F000EF92F01CEF92F0AB
:1024000020EE10F06251D9266351DA2210EE0AF064
:102410006251E1266351E222DEC4E6F4DEC4E6F452
:10242000DEC4E6F4DEC4E6F420EE0EF06251D926F6
:102430006351DA22000EDB8C20EE10F06251D926B7
:102440006351DA22FF0EDE14686F010EDE14696F2D
:10245000000EDE146A6F000EDE146B6F6851691196
:102460006A116B11D8B437EF92F039EF92F0FFEFA9
:102470008EF020EE18F06251D9266351DA227C5199
:10248000DE180FE17D51DE180CE17E51DE1809E106
:102490007F51DE18D8B44FEF92F051EF92F0FFEF7A
:1024A0008EF020EE0EF06251D9266351DA22DFAEB3
:1024B0005CEF92F05EEF92F09BEF92F0220E6225BD
:1024C000006F000E6321016F20EE18F06251D926D3
:1024D0006351DA22DEC402F6DEC403F6DEC404F67B
:1024E000DEC405F6000E076F010E066F20EE01F048
:1024F0008551D9268651DA22DF509EECF3F000098F
:10250000D8B485EF92F087EF92F092EF92F0060147
:1025100020EE0FF06251D9266351DA22010EDF6EF0
:1025200086EF90F0060120EE0EF06251D92663513D
:10253000DA227F0EDF16220E6225006F000E632165
:10254000016F7CC602F67DC603F67EC604F67FC622
:1025500005F6000E076F010E066F20EE01F08551A3
:10256000D9268651DA22DF50F5ECF3F00009D8B411
:10257000BCEF92F0BEEF92F0C9EF92F0060120EEB0
:102580000FF06251D9266351DA22010EDF6E86EF19
:1025900090F0060120EE18F06251D9266351DA223C
:1025A0007CC6DEF47DC6DEF47EC6DEF47FC6DEF4D5
:1025B000FFEF8EF012000601AF51B011D8A4E3EF87
:1025C00092F0E5EF92F0E8EF92F0090E9AEF96F0B4
:1025D0003F0EB317B10E816F060E826FD40E836F5C
:1025E000060E846FB3C685F600EC80F00601D66F48
:1025F000D651D8A4FEEF92F000EF93F08AEF96F058
:10260000D4C6D7F6D5C6D8F6D70E846F060E856F1A
:10261000B1C686F6B2C687F661ECC4F00601D66F85
:10262000D651D8A416EF93F018EF93F021EF93F062
:10263000FEAF1DEF93F01FEF93F021EF93F0060E26
:10264000D66FB3C6B4F61C0EB417D8B42AEF93F005
:102650002CEF93F047EF94F0D651D8B432EF93F0CB
:1026600034EF93F048EF93F0040ED619D8A43BEF63
:1026700093F03DEF93F045EF93F0D70E886F060E81
:10268000896F7BECEEF00601D66FB38760EF93F0B5
:10269000DBC6B4F6110EB417D8B451EF93F053EF74
:1026A00093F057EF93F0070ED66F60EF93F0B3A55A
:1026B0005CEF93F05EEF93F060EF93F0080ED66F4F
:1026C000D651D8A466EF93F068EF93F06AEF94F0D8
:1026D000B3A76DEF93F06FEF93F06AEF94F033ECE4
:1026E00001F004C5C0F605C5C1F606C5C2F607C5AA
:1026F000C3F60E0E0601F125046E000EF221056EE2
:10270000C0C606F5C1C607F5C2C608F5C3C609F5B9
:10271000FDECFAF0160E0601F125046E000EF22112
:10272000056EC0C606F5C1C607F5C2C608F5C3C624
:1027300009F5FDECFAF0D4C60BF5D5C60CF5F1C6DB
:102740000DF5F2C60EF55AECF9F00BC5C4F60CC542
:10275000C5F60DC5C6F60EC5C7F6060120EE0BF090
:10276000F151D926F251DA22200EDF6ED4C608F5D7
:10277000D5C609F5F1C60AF5F2C60BF5000E0C6ECA
:10278000000E0D6E000E0E6E000E0F6E48ECFDF08A
:102790001C0E0601F125046E000EF221056E000EDE
:1027A000066E000E076E000E086E000E096EFDEC40
:1027B000FAF0060120EE04F0D451D926D551DA22E0
:1027C000010EDF6EC451C511C611C711D8B4EBEFAD
:1027D00093F0EDEF93F06AEF94F020EE30F0D451E7
:1027E000D926D551DA22DEC4C8F6DEC4C9F6DEC465
:1027F000CAF6DEC4CBF6D70E456F060E466FC4C6CA
:1028000047F6C5C648F6C6C649F6C7C64AF6000E1C
:102810004B6F000E4C6F000E4D6F000E4E6F54EC60
:10282000CDF00601D66FD651D8A419EF94F01BEF66
:1028300094F06AEF94F0D4C61AF6D5C61BF6C8C653
:102840001CF6C9C61DF6CAC61EF6CBC61FF6CBECD3
:10285000EFF00601D66FFF0EC425B46FFF0EC52141
:10286000B56FFF0EC621B66FFF0EC721B76F20EE02
:102870000CF0D451D926D551DA22B4C6DEF4B5C64F
:10288000DEF4B6C6DEF4B7C6DEF46AEF94F0D651D5
:10289000D8A44DEF94F04FEF94F06AEF94F0DBA9D9
:1028A00054EF94F056EF94F05AEF94F0040ED66F74
:1028B0006AEF94F0B3A35FEF94F061EF94F06AEFE6
:1028C00094F0DBA166EF94F068EF94F06AEF94F077
:1028D000070ED66FD651D8A470EF94F072EF94F033
:1028E00098EF94F0B3A777EF94F079EF94F07AEF44
:1028F00094F0B38D20EE30F0D451D926D551DA22A0
:1029000010EE1CF0AF51E126B051E222DEC4E6F435
:10291000DEC4E6F4DEC4E6F4DEC4E6F420EE20F025
:10292000AF51D926B051DA22F1C6DEF4F2C6DDF499
:10293000D651D8A49EEF94F0A0EF94F08AEF96F0D1
:10294000D4C60BF5D5C60CF5F1C60DF5F2C60EF5DD
:102950005AECF9F0060120EE06F0AF51D926B0513D
:10296000DA220BC5DEF40CC5DEF40DC5DEF40EC5AF
:10297000DEF41C0EF125046E000EF221056EE7EC6C
:10298000F2F0060120EE0AF0AF51D926B051DA225A
:1029900004C5DEF405C5DEF406C5DEF407C5DEF4C5
:1029A000AFC6D9F4B0C6DAF4D4C6DEF4D5C6DDF4C9
:1029B00020EE06F0D451D926D551DA2210EE02F0DD
:1029C000AF51E126B051E222DEC4E6F4DDC4E5F405
:1029D00020EE0EF0AF51D926B051DA22B3C6DFF4A3
:1029E00020EE0FF0AF51D926B051DA22DF6A20EE87
:1029F00018F0AF51D926B051DA22DE6ADE6ADE6AFB
:102A0000DD6A20EE10F0AF51D926B051DA22DE6A2D
:102A1000DE6ADE6ADD6A220EAF25046E000EB0218A
:102A2000056E000E076E000E066E020E096E000E99
:102A3000086E34ECFFF00601B3AB21EF95F023EF05
:102A400095F08AEF96F020EE0AF0AF51D926B051FA
:102A5000DA22DE50DE10DE10DE10D8B432EF95F050
:102A600034EF95F08AEF96F020EE0AF0AF51D926B8
:102A7000B051DA2210EE10F0AF51E126B051E2224F
:102A8000DEC4E6F4DEC4E6F4DEC4E6F4DEC4E6F456
:102A900020EE0AF0D451D926D551DA22DEC4B4F69C
:102AA000DDC4B5F6B451B66FB551B76FB86BB96B3D
:102AB000090ED890B637B737B837B937E82E59EF7F
:102AC00095F0B6C6BCF6B7C6BDF6B8C6BEF6B9C672
:102AD000BFF620EE06F0AF51D926B051DA22DEC49F
:102AE000D0F6DEC4D1F6DEC4D2F6DEC4D3F620EED4
:102AF0000AF0AF51D926B051DA22DEC4CCF6DEC4DA
:102B0000CDF6DEC4CEF6DEC4CFF6C5EF95F0AFC687
:102B100024F6B0C625F6D0C626F6D1C627F6D2C60C
:102B200028F6D3C629F6F7ECB4F024C6D0F625C6AD
:102B3000D1F626C6D2F627C6D3F60601D351D21156
:102B4000D11107E1020ED05DD8B0A9EF95F0ABEF3F
:102B500095F0ADEF95F0020ED66FD0290AE1D1299C
:102B600008E1D22906E1D329D8A4B9EF95F0BBEF4B
:102B700095F0BDEF95F0010ED66FBC51CC5FBD5105
:102B8000CD5BBE51CE5BBF51CF5BD651D8A4CBEF4E
:102B900095F0CDEF95F0DCEF95F0CC51BC5DCD51CB
:102BA000BD59CE51BE59CF51BF59D8A0DAEF95F0DB
:102BB000DCEF95F087EF95F020EE14F0AF51D926B9
:102BC000B051DA22D0C6DEF4D1C6DEF4D2C6DEF4CD
:102BD000D3C6DEF4D651D8A4F0EF95F0F2EF95F01D
:102BE0008AEF96F0FF0ECC15B46F010ECD15B56FC0
:102BF000000ECE15B66F000ECF15B76FB451B511DC
:102C0000B611B711D8B407EF96F009EF96F08AEF36
:102C100096F0D4C610F5D5C611F5D0C612F5D1C6BA
:102C200013F5D2C614F5D3C615F59AECF0F010C51D
:102C3000C8F611C5C9F612C5CAF613C5CBF606010A
:102C4000C851C911CA11CB11D8A429EF96F02BEFA6
:102C500096F02FEF96F0020ED66F8AEF96F0CCC664
:102C6000B4F6CDC6B5F6CEC6B6F6CFC6B7F60A0EE2
:102C70003FEF96F0D890B733B633B533B433E82E80
:102C80003AEF96F0C851B425B86FC951B521B96F64
:102C9000CA51B621BA6FCB51B721BB6F20EE18F0E5
:102CA000AF51D926B051DA22B8C6DEF4B9C6DEF487
:102CB000BAC6DEF4BBC6DEF4220EAF25006F000EEE
:102CC000B021016F20EE18F0AF51D926B051DA22B1
:102CD000DEC402F6DEC403F6DEC404F6DEC405F686
:102CE000000E076F010E066F20EE01F0D451D926B9
:102CF000D551DA22DF50F5ECF3F00009D8B483EFB8
:102D000096F085EF96F08AEF96F0010E0601D66FE9
:102D10008AEF96F00601D651D8B491EF96F093EF72
:102D200096F099EF96F0AFC6D9F4B0C6DAF4DE6A41
:102D3000DD6AD651120040C65BF641C65CF644C659
:102D4000D9F445C6DAF4DE6ADD6A3EC6BEF53FC692
:102D5000BFF5670E0501C06F060EC16F30ECEAF0DB
:102D60000601566F5651D8A4B8EF96F0BAEF96F018
:102D7000CAEF96F020EE0FF03E51D9263F51DA22ED
:102D8000DF50566F5651D8B4C8EF96F0CAEF96F0A0
:102D9000CDEF96F0565124EF9AF020EE0EF03E5112
:102DA000D9263F51DA22DFB0D8EF96F0DAEF96F06D
:102DB000DDEF96F0070E24EF9AF020EE10F03E5172
:102DC000D9263F51DA22DEC446F6DEC447F6DEC419
:102DD00048F6DEC449F620EE0AF03E51D9263F51AE
:102DE000DA22DEC44AF6DEC44BF6DEC44CF6DEC49C
:102DF0004DF646514A5D526F47514B59536F4851FA
:102E00004C59546F49514D59556F4251466F43517A
:102E1000476F486B496B4651525D47515359485172
:102E2000545949515559D8B018EF97F01AEF97F007
:102E30001EEF97F052C642F653C643F64251431175
:102E4000D8A425EF97F027EF97F029EF97F023EF1D
:102E50009AF020EE10F03E51D9263F51DA22FF0EB3
:102E6000DE14466F010EDE14476F000EDE14486F4D
:102E7000000EDE14496F4651471148114911D8A47C
:102E800044EF97F046EF97F0B6EF99F020EE10F090
:102E90003E51D9263F51DA22DEC446F6DEC447F65B
:102EA000DEC448F6DEC449F60A0E5CEF97F0D8900F
:102EB0004933483347334633E82E57EF97F020EE37
:102EC0000AF06751D9266851DA22DEC44AF6DDC419
:102ED0004BF6FF0E4A254C6FFF0E4B214D6F4651AE
:102EE0004C155D6F47514D155E6F5D515E11D8A455
:102EF0007CEF97F07EEF97F0FBEF97F020EE10F06D
:102F00003E51D9263F51DA22DE50DE10DE10DE10AF
:102F1000D8A48DEF97F08FEF97F09FEF97F020EE0A
:102F200006F03E51D9263F51DA22DEC457F6DEC400
:102F300058F6DEC459F6DEC45AF6BBEF97F03EC62B
:102F400024F63FC625F620EE14F03E51D9263F5117
:102F5000DA22DEC426F6DEC427F6DEC428F6DEC496
:102F600029F6F7ECB4F024C657F625C658F626C65F
:102F700059F627C65AF606015A515911581107E158
:102F8000020E575DD8B0C7EF97F0C9EF97F0D4EFB6
:102F900097F020EE0FF03E51D9263F51DA22020E73
:102FA000DF6E020E24EF9AF057290AE1582908E152
:102FB000592906E15A29D8A4E0EF97F0E2EF97F0FB
:102FC000EDEF97F020EE0FF03E51D9263F51DA2277
:102FD000010EDF6E010E24EF9AF020EE14F03E5148
:102FE000D9263F51DA2257C6DEF458C6DEF459C658
:102FF000DEF45AC6DEF467C610F568C611F520EE99
:1030000014F03E51D9263F51DA22DEC412F5DEC457
:1030100013F5DEC414F5DEC415F59AECF0F010C516
:1030200063F611C564F612C565F613C566F60601AA
:103030006351641165116611D8A421EF98F023EF54
:1030400098F02DEF98F020EE0FF03E51D9263F5129
:10305000DA22020EDF6ED1EF97F05D5163275E51E9
:103060006423000E6523000E662342C646F643C65F
:1030700047F6090E486FD89047334633482F3BEF49
:1030800098F046C65FF647C660F65F516011D8B447
:103090004CEF98F04EEF98F017EF99F05F515D25E7
:1030A000466F60515E21476F20EE0AF06751D926C6
:1030B0006851DA224651DE5C4751DE58D8B063EFE2
:1030C00098F065EF98F075EF98F020EE0AF06751F0
:1030D000D9266851DA22DEC446F6DDC447F65D51D2
:1030E000465D5F6F5E514759606F5BC600F65CC618
:1030F00001F663C602F664C603F665C604F666C644
:1031000005F65FC606F660C607F620EE01F06751C9
:10311000D9266851DA22DF50F5ECF3F00009D8B473
:1031200094EF98F096EF98F0A1EF98F0060120EE5A
:103130000FF03E51D9263F51DA22010EDF6EEAEF41
:1031400097F0060120EE0EF03E51D9263F51DA22CB
:10315000DFAEADEF98F0AFEF98F005EF99F05F516B
:10316000466F6051476F486B496B20EE18F03E5137
:10317000D9263F51DA22DEC44AF6DEC44BF6DEC45D
:103180004CF6DEC44DF663514A5D4E6F64514B59A7
:103190004F6F65514C59506F66514D59516F4651A3
:1031A0004E5D47514F594851505949515159D8B026
:1031B000DCEF98F0DEEF98F005EF99F020EE18F0D4
:1031C0003E51D9263F51DA22DEC446F6DDC447F629
:1031D0006351465F6451475B090ED89046374737C5
:1031E000E82EEDEF98F046515B25046E47515C21C7
:1031F000056E220E3E25066E000E3F21076E020E62
:10320000096E000E086E20ECFDF05FC646F660C643
:1032100047F6090ED890060146374737E82E0AEFE1
:1032200099F046C661F647C662F603EF9AF020EEC3
:1032300018F03E51D9263F51DA226351DE180FE1D2
:103240006451DE180CE16551DE1809E16651DE18A3
:10325000D8B42DEF99F02FEF99F0A7EF99F020EE69
:103260000EF03E51D9263F51DA22DFAE3AEF99F007
:103270003CEF99F079EF99F0220E3E25006F000E99
:103280003F21016F20EE18F03E51D9263F51DA223E
:10329000DEC402F6DEC403F6DEC404F6DEC405F6C0
:1032A000000E076F010E066F20EE01F06751D92660
:1032B0006851DA22DF509EECF3F00009D8B463EFD6
:1032C00099F065EF99F070EF99F0060120EE0FF09C
:1032D0003E51D9263F51DA22010EDF6EEAEF97F018
:1032E000060120EE0EF03E51D9263F51DA227F0E24
:1032F000DF16220E3E25006F000E3F21016F63C6D0
:1033000002F664C603F665C604F666C605F6000E48
:10331000076F010E066F20EE01F06751D926685144
:10332000DA22DF50F5ECF3F00009D8B49AEF99F007
:103330009CEF99F0A7EF99F0060120EE0FF03E51B7
:10334000D9263F51DA22010EDF6EEAEF97F006012F
:1033500020EE18F03E51D9263F51DA2263C6DEF442
:1033600064C6DEF465C6DEF466C6DEF420EE10F058
:103370003E51D9263F51DA22DEC446F6DDC447F677
:10338000FF0E4615486F010E4715496F485100085A
:10339000616F4951D8A0E82A0208626F6151425D0D
:1033A00062514359D8B0D7EF99F0D9EF99F0DDEFDA
:1033B00099F042C661F643C662F65BC604F55CC688
:1033C00005F520EE10F03E51D9263F51DA22DEC439
:1033D00046F6DDC447F6FF0E4615486F010E471549
:1033E000496F48513E254A6F49513F214B6F220E8C
:1033F0004A25066E000E4B21076E61C608F562C6AF
:1034000009F520ECFDF006016151425F6251435B1A
:1034100044C6D9F445C6DAF46151DE266251DD2294
:1034200061515B2762515C2320EE10F03E51D9269A
:103430003F51DA226151DE266251DE22000EDE2289
:10344000DE221EEF97F0000E120095C5D9F496C546
:10345000DAF4DEC4F6F4DDC4F7F4000EF86E08000A
:10346000F550250AD8A437EF9AF039EF9AF065EFB6
:103470009DF095C5D9F496C5DAF4DE2A000EDD225A
:10348000000E0701B26F000EB16FB1C75CF55A684C
:103490005B6805019D6B6DEF9AF05C8295C5D9F470
:1034A00096C5DAF4DE2A000EDD226DEF9AF0010EE9
:1034B0009D6F6DEF9AF095C5D9F496C5DAF4DEC428
:1034C000F6F4DDC4F7F4000EF86E0800F550300A8B
:1034D000D8B44DEF9AF057EF9AF09D51D8B473EFEE
:1034E0009AF075EF9AF05BEF9AF095C504F596C5E2
:1034F00005F597C506F598C507F534ECF0F004C559
:10350000B1F705C5B2F70701B2BF8BEF9AF089EFAB
:103510009AF090EF9AF05C80B16DB21FD8B0B22BE8
:1035200095C5D9F496C5DAF4DEC4F6F4DDC4F7F433
:10353000000EF86E0800F5502E0AD8A4A2EF9AF0FB
:10354000A4EF9AF0B9EF9AF095C5D9F496C5DAF4DC
:10355000DE2A000EDD2295C504F596C505F597C552
:1035600006F598C507F534ECF0F004C55AF505C525
:103570005BF595C5D9F496C5DAF4DEC4A3F5DDC4D0
:10358000A4F5A3C5F6F4A4C5F7F4000EF86E080080
:10359000F5C4A2F5D7EF9AF0A34BA42BEFEF9AF066
:1035A000690EA26FEFEF9AF0A26BEFEF9AF00501B0
:1035B000A251580AD8B4D0EF9AF03C0AD8B4D0EF50
:1035C0009AF00D0AD8B4D0EF9AF0050AD8B4CCEF2F
:1035D0009AF0140AD8B4D0EF9AF0D4EF9AF0A3C5B9
:1035E000F6F4A4C5F7F4000EF86E0800F550640A6E
:1035F000D8B4FDEF9AF0FFEF9AF046EF9BF0A3C529
:10360000F6F4A4C5F7F4000EF86E0800F550690A48
:10361000D8A40DEF9BF00FEF9BF06FEF9BF046EF00
:103620009BF097C5D9F498C5DAF4DFC499F5020E7A
:10363000DE26DFC49AF5000EDD2299C5D9F49AC5BD
:10364000DAF4DEC49EF5DDC49FF5000E9FBFFF0EC9
:10365000A06FA16F51EF9BF097C5D9F498C5DAF42C
:10366000DFC499F5040EDE26DFC49AF5000EDD22D4
:1036700099C5D9F49AC5DAF4DEC49EF5DEC49FF587
:10368000DEC4A0F5DEC4A1F551EF9BF0A251690A9A
:10369000D8B411EF9BF0050AD8B42CEF9BF051EF92
:1036A0009BF0010EA325996F000EA4219A6F95C57A
:1036B000D9F496C5DAF499C5DEF49AC5DDF493C55C
:1036C0001EF594C51FF59EC520F59FC521F5A0C523
:1036D00022F5A1C523F581ECD3F07BEF9DF0A3C5C6
:1036E000F6F4A4C5F7F4000EF86E0800F550780A59
:1036F000D8B47DEF9BF07FEF9BF0C7EF9BF0A3C5A5
:10370000F6F4A4C5F7F4000EF86E0800F550580A58
:10371000D8A48DEF9BF08FEF9BF00DEF9CF0C7EFDF
:103720009BF097C5D9F498C5DAF4DFC499F5020E79
:10373000DE26DFC49AF5000EDD2299C5D9F49AC5BC
:10374000DAF4DEC49BF5DDC49CF59BC59EF59CC5F3
:103750009FF5A06BA16BD2EF9BF097C5D9F498C5EC
:10376000DAF4DFC499F5040EDE26DFC49AF5000E04
:10377000DD2299C5D9F49AC5DAF4DEC49EF5DEC41B
:103780009FF5DEC4A0F5DEC4A1F5D2EF9BF0A251F7
:10379000690AD8B491EF9BF0050AD8B4ADEF9BF05D
:1037A000D2EF9BF0010EA325996F000EA4219A6F12
:1037B00095C5D9F496C5DAF499C5DEF49AC5DDF459
:1037C000FBEF9BF093C51EF594C51FF59EC520F534
:1037D0009FC521F5A0C522F5A1C523F5A3C5F6F423
:1037E000A4C5F7F4000EF86E0800F5C424F58FECBC
:1037F000DDF07BEF9DF0A3C5F6F4A4C5F7F4000E51
:10380000F86E0800F550580AD8B4E2EF9BF0200A91
:10381000D8B4E2EF9BF00DEF9CF09D6B95C5D9F409
:1038200096C5DAF4DEC4F6F4DDC4F7F4000EF86EE3
:103830000800F550730AD8A420EF9CF022EF9CF00A
:103840002DEF9CF095C5D9F496C5DAF4DE2A000E6A
:10385000DD22010E9D6F83EF9CF095C5D9F496C5CE
:10386000DAF4DEC4F6F4DDC4F7F4000EF86E0800F6
:10387000F5506C0AD8A43FEF9CF041EF9CF083EF29
:103880009CF095C5D9F496C5DAF4DEC499F5DDC48B
:103890009AF5010E9927000E9A2399C5F6F49AC558
:1038A000F7F4000EF86E0800F5506C0AD8A45BEF30
:1038B0009CF05DEF9CF083EF9CF095C5D9F496C524
:1038C000DAF4DEC499F5DDC49AF5020E9927000EEC
:1038D0009A2399C5F6F49AC5F7F4000EF86E08001D
:1038E000F550730AD8A477EF9CF079EF9CF083EF42
:1038F0009CF0030E95C5D9F496C5DAF4DE26000EC9
:10390000DD2229EF9CF09D51D8B489EF9CF08BEF1C
:103910009CF0A7EF9CF093C50EF594C50FF597C5E5
:10392000D9F498C5DAF4DFC499F5020EDE26DFC4B7
:103930009AF5000EDD2299C5D9F49AC5DAF4DEC4F1
:1039400010F5DDC411F5F7ECDBF07BEF9DF095C5CC
:10395000D9F496C5DAF4DEC4A3F5DDC4A4F5A3C595
:10396000F6F4A4C5F7F4000EF86E0800F5C4A2F54D
:10397000C5EF9CF0A34BA42BD4EF9CF06C0EA26F70
:10398000D4EF9CF0A26BD4EF9CF0A2514C0AD8B4B7
:10399000BAEF9CF02A0AD8B4BEEF9CF00A0AD8B459
:1039A000BAEF9CF0C2EF9CF0A3C5F6F4A4C5F7F4FF
:1039B000000EF86E0800F550660AD8A4E2EF9CF0FD
:1039C000E4EF9CF05CEF9DF01AEF9DF097C5D9F401
:1039D00098C5DAF4DFC499F5040EDE26DFC49AF543
:1039E000000EDD2299C5D9F49AC5DAF4DEC49EF53D
:1039F000DEC49FF5DEC4A0F5DEC4A1F525EF9DF081
:103A000097C5D9F498C5DAF4DFC499F5040EDE261B
:103A1000DFC49AF5000EDD2299C5D9F49AC5DAF40F
:103A2000DEC49EF5DEC49FF5DEC4A0F5DEC4A1F5BC
:103A300025EF9DF0A2514C0AD8B400EF9DF0200A6A
:103A4000D8B4E6EF9CF025EF9DF0010EA325996F09
:103A5000000EA4219A6F95C5D9F496C5DAF499C5DC
:103A6000DEF49AC5DDF44EEF9DF093C560F594C584
:103A700061F59EC562F59FC563F5A0C564F5A1C556
:103A800065F5A3C5F6F4A4C5F7F4000EF86E0800BA
:103A9000F5C466F56CEC85F07BEF9DF0A3C5F6F4FC
:103AA000A4C5F7F4000EF86E0800F550660AD8B405
:103AB00035EF9DF05CEF9DF095C5D9F496C5DAF42D
:103AC000DE2A000EDD227BEF9DF095C5D9F496C568
:103AD000DAF4DEC4F6F4DDC4F7F4000EF86E080084
:103AE000F550056E066A93C507F594C508F565ECB3
:103AF000F1F05CEF9DF0120045C6D9F446C6DAF449
:103B0000DEC45CF6DDC45DF606014751481149117B
:103B10004A11D8A48EEF9DF090EF9DF0C8EF9DF074
:103B200020EE0CF05C51D9265D51DA22DEC454F649
:103B3000DEC455F6DEC456F6DEC457F654515511B0
:103B400056115711D8B4A7EF9DF0A9EF9DF0BEEF25
:103B50009DF020EE18F05C51D9265D51DA22DE503E
:103B6000545DDE505559DE505659DE505759D8A095
:103B7000BCEF9DF0BEEF9DF02DEF9EF0010E546F57
:103B8000000E556F000E566F000E576F2DEF9EF012
:103B900045C624F646C625F647C626F648C627F685
:103BA00049C628F64AC629F6F7ECB4F024C65EF6F4
:103BB00025C65FF626C660F627C661F60601615186
:103BC00060115F1107E1020E5E5DD8B0EAEF9DF073
:103BD000ECEF9DF0F6EF9DF0010E456F000E466F85
:103BE000000E476F000E486F53EFA0F05E290AE108
:103BF0005F2908E1602906E16129D8A402EF9EF05F
:103C000004EF9EF00EEF9EF05EC645F65FC646F6E8
:103C100060C647F661C648F653EFA0F020EE18F0F4
:103C20005C51D9265D51DA22DE505E5DDE505F596F
:103C3000DE506059DE506159D8B021EF9EF023EF7D
:103C40009EF025EF9EF004EF9EF047C654F648C65E
:103C500055F649C656F64AC657F620EE10F05C51A6
:103C6000D9265D51DA22DE50DE10DE10DE10D8A437
:103C70003CEF9EF03EEF9EF048EF9EF0000E456F49
:103C8000000E466F000E476F000E486F53EFA0F016
:103C9000000E586F000E596F000E5A6F000E5B6FCA
:103CA000475154190DE1485155190AE14951561926
:103CB00007E14A515719D8A460EF9EF062EF9EF0D9
:103CC00008EF9FF0010E5425586F000E5521596FD3
:103CD000000E56215A6F000E57215B6F20EE18F030
:103CE0005C51D9265D51DA22DE50585DDE505959BB
:103CF000DE505A59DE505B59D8A081EF9EF083EF19
:103D00009EF08BEF9EF0020E586F000E596F000E62
:103D10005A6F000E5B6F45C624F646C625F658C698
:103D200026F659C627F65AC628F65BC629F6F7ECDA
:103D3000B4F024C65EF625C65FF626C660F627C632
:103D400061F606015E055F1160116111D8B4ABEF39
:103D50009EF0ADEF9EF004EF9EF05E290AE15F2930
:103D600008E1602906E16129D8A4B9EF9EF0BBEF14
:103D70009EF0BDEF9EF004EF9EF05E515F1160116A
:103D80006111D8B4C6EF9EF0C8EF9EF008EF9FF027
:103D900020EE0CF05C51D9265D51DA22DEC45EF6CD
:103DA000DEC45FF6DEC460F6DEC461F66151601108
:103DB0005F1109E1020E5E5DD8A0E1EF9EF0E3EF36
:103DC0009EF000EF9FF020EE18F05C51D9265D5177
:103DD000DA22DE505E5DDE505F59DE506059DE5003
:103DE0006159D8B0F6EF9EF0F8EF9EF000EF9FF02B
:103DF0005EC654F65FC655F660C656F661C657F6FF
:103E0000000E586F000E596F000E5A6F000E5B6F58
:103E1000585159115A115B11D8A411EF9FF013EFAB
:103E20009FF0A0EF9FF054C658F655C659F656C6F7
:103E30005AF657C65BF6010E5827000E59235A232F
:103E40005B2320EE18F05C51D9265D51DA22DE505A
:103E5000585DDE505959DE505A59DE505B59D8A092
:103E600034EF9FF036EF9FF04DEF9FF0020E586F4A
:103E7000000E596F000E5A6F000E5B6F57515611AE
:103E8000551107E1020E545DD8B049EF9FF04BEF9A
:103E90009FF04DEF9FF03EEF9EF045C624F646C6DC
:103EA00025F658C626F659C627F65AC628F65BC622
:103EB00029F6F7ECB4F024C65EF625C65FF626C6F2
:103EC00060F627C661F606015E515F11601161114F
:103ED000D8A46DEF9FF06FEF9FF071EF9FF0A0EF10
:103EE0009FF05E055F1160116111D8B47AEF9FF009
:103EF0007CEF9FF004EF9EF05E290AE15F2908E164
:103F0000602906E16129D8A488EF9FF08AEF9FF02D
:103F10008CEF9FF004EF9EF0545158190DE155516C
:103F200059190AE156515A1907E157515B19D8A49A
:103F30009CEF9FF09EEF9FF01BEF9FF03EEF9EF0F7
:103F40005CC624F65DC625F658C626F659C627F681
:103F50005AC628F65BC629F6FF0E2A6FFF0E2B6F96
:103F6000FF0E2C6FFF0E2D6F54ECA0F00601536F67
:103F70005351D8A4BEEF9FF0C0EF9FF0E3EF9FF046
:103F80004751481149114A11D8B4C9EF9FF0CBEFFE
:103F90009FF0E3EF9FF05CC624F65DC625F647C6AA
:103FA00026F648C627F649C628F64AC629F658C650
:103FB0002AF659C62BF65AC62CF65BC62DF654ECDB
:103FC000A0F00601536F5351D8A4E9EF9FF0EBEF37
:103FD0009FF035EFA0F020EE0CF05C51D9265D513A
:103FE000DA2258C6DEF459C6DEF45AC6DEF45BC6E1
:103FF000DEF420EE10F05C51D9265D51DA2210EE8D
:1040000018F05C51E1265D51E222FE0EE6244F6F6E
:10401000FF0EE620506FFF0EE620516FFF0EE620E8
:10402000526FDE504F5DDE505059DE505159DE5018
:104030005259D8A01EEFA0F020EFA0F02BEFA0F077
:1040400020EE10F05C51D9265D51DA22DE06000E1A
:10405000DE5ADE5ADE5A20EE05F05C51D9265D515B
:10406000DA22000EDB804BEFA0F05305D8B43BEF13
:10407000A0F03DEFA0F047EFA0F0010E586F000E4A
:10408000596F000E5A6F000E5B6F4BEFA0F058692E
:1040900059695A695B6958C645F659C646F65AC603
:1040A00047F65BC648F61200020E0601446F29511E
:1040B0002811271109E1020E265DD8A062EFA0F0B9
:1040C00064EFA0F0C8EFA2F020EE18F02451D9263A
:1040D0002551DA22DE50265DDE502759DE50285960
:1040E000DE502959D8B077EFA0F079EFA0F0C8EFF3
:1040F000A2F0B5EFA2F026C642F627C643F6D89046
:1041000043312F6F42312E6F2E5142272F514323BF
:1041100024C61AF625C61BF620EE24F02451D92613
:104120002551DA22DEC42EF6DEC42FF6DEC430F6C8
:10413000DEC431F642C632F643C633F6090E346F9A
:10414000D89033333233342FA0EFA0F032512E25E4
:104150001C6F33512F211D6F000E30211E6F000E7A
:1041600031211F6FCBECEFF00601446F4451D8B4FE
:10417000BCEFA0F0BEEFA0F0C0EFA0F0C8EFA2F03F
:10418000FF0E42152E6F010E43152F6F2E51242561
:10419000306F2F512521316F340E3025406F000EC6
:1041A0003121416F424B432B26B1D9EFA0F0DBEF19
:1041B000A0F0E0EFA0F02AC63CF63D6BFAEFA0F0CD
:1041C0002A512E6F2F6B2E3B2F3BF00E2F172E51A7
:1041D0000F0B2F13F00E2E1740C6D9F441C6DAF498
:1041E000DF500F0B306F316B2E5130113C6F2F5160
:1041F00031113D6F40C6D9F441C6DAF43CC6DFF454
:1042000020EE04F02451D9262551DA22010EDF6E6A
:1042100024C61AF625C61BF620EE24F02451D92612
:104220002551DA22DEC42EF6DEC42FF6DEC430F6C7
:10423000DEC431F642C632F643C633F6090E346F99
:10424000D89033333233342F20EFA1F032512E2562
:104250001C6F33512F211D6F000E30211E6F000E79
:1042600031211F6FCBECEFF00601446F4451D8B4FD
:104270003CEFA1F03EEFA1F040EFA1F0C8EFA2F0BB
:10428000FF0E42152E6F010E43152F6F2E51242560
:10429000306F2F512521316F340E3025406F000EC5
:1042A0003121416F26B157EFA1F059EFA1F077EF1F
:1042B000A1F02AC62EF62BC62FF62CC630F62DC638
:1042C00031F62FC62EF630C62FF631C630F6316BDA
:1042D0000F0E2E1740C6D9F441C6DAF4DF50F00BAA
:1042E0002E11326F32513E6F3F6B8DEFA1F02AC617
:1042F0002EF62BC62FF62CC630F62DC631F6050E3F
:1043000087EFA1F0D890313330332F332E33E82E9E
:1043100082EFA1F02E513E6F3F6B40C6D9F441C6EB
:10432000DAF43EC6DFF420EE04F02451D9262551FC
:10433000DA22010EDF6EC8EFA2F024C61AF625C6F7
:104340001BF620EE24F02451D9262551DA22DEC4B2
:104350002EF6DEC42FF6DEC430F6DEC431F626C6F5
:1043600032F627C633F628C634F629C635F633C6E4
:1043700032F634C633F635C634F6356B2E51322557
:104380001C6F2F5133211D6F305134211E6F31515D
:1043900035211F6FCBECEFF00601446F4451D8B4C8
:1043A000D4EFA1F0D6EFA1F0D8EFA1F0C8EFA2F0C2
:1043B00026C62EF627C62FF6D8902E372F37FF0E9B
:1043C0002E15306F010E2F15316F30512425326FAD
:1043D00031512521336F340E3225046E000E332106
:1043E000056E2AC606F52BC607F5E6ECFFF00601BA
:1043F00020EE04F02451D9262551DA22010EDF6E79
:10440000C8EFA2F024C61AF625C61BF620EE24F04B
:104410002451D9262551DA22DEC42EF6DEC42FF629
:10442000DEC430F6DEC431F626C632F627C633F6D1
:1044300028C634F629C635F6080E24EFA2F0D89027
:104440003533343333333233E82E1FEFA2F02E519D
:1044500032251C6F2F5133211D6F305134211E6FB7
:10446000315135211F6FCBECEFF00601446F445101
:10447000D8B43DEFA2F03FEFA2F041EFA2F0C8EFB9
:10448000A2F026C62EF627C62FF6D8902E372F3745
:10449000D8902E372F37FF0E2E15306F010E2F15A7
:1044A000316F30512425326F31512521336F340E55
:1044B0003225046E000E3321056EE7ECF2F0000E9B
:1044C00004140601346F000E0514356F000E061437
:1044D000366FF00E0714376FFF0E2A15386FFF0E78
:1044E0002B15396FFF0E2C153A6F0F0E2D153B6FE4
:1044F000345138112A6F355139112B6F36513A1119
:104500002C6F37513B112D6F26C62EF627C62FF67E
:10451000D8902E372F37D8902E372F37FF0E2E15E5
:10452000306F010E2F15316F30512425326F31510C
:104530002521336F340E3225046E000E3321056EB3
:104540002AC606F52BC607F52CC608F52DC609F5B3
:10455000FDECFAF0060120EE04F02451D926255195
:10456000DA22010EDF6EC8EFA2F024C6D9F425C608
:10457000DAF4DF50010AD8B47BEFA0F0030AD8B414
:104580009DEFA1F0010AD8B402EFA2F0C8EFA2F0AB
:10459000445112000EC5D9F40FC5DAF4DEC41EF57D
:1045A000DDC41FF51C0E0C241C6E000E0D201D6EAC
:1045B0001CC504F51DC505F5000E076E200E066E20
:1045C000000E096E0B0E086E34ECFFF0000E1B6E31
:1045D000000E1A6E1AC520F51BC521F5000E196EC6
:1045E000080E186E20501E24106E21501F20116ED0
:1045F00010C5F6F411C5F7F4000EF86E250EF76439
:1046000003D00800F55005D0F6C4E9F4F7C4EAF485
:10461000EF502E0AD8A40FEFA3F011EFA3F095EFFF
:10462000A3F020501E24106E21501F20116E10C5C3
:10463000F6F411C5F7F4000EF86E250EF76403D0FA
:104640000800F55005D0F6C4E9F4F7C4EAF4EF50D9
:10465000226E204A212A2E0E2218D8A432EFA3F06F
:1046600034EFA3F04DEFA3F0215009E1030E205CDD
:10467000D8A03DEFA3F03FEFA3F041EFA3F04DEF43
:10468000A3F01A501C24D96E1B501D20DA6E22C5CF
:10469000DFF41A4A1B2A11EFA3F02F0E2218D8B408
:1046A00054EFA3F056EFA3F06AEFA3F05C0E2218CC
:1046B000D8B45DEFA3F05FEFA3F06AEFA3F0200E94
:1046C000226465EFA3F067EFA3F06AEFA3F0060E94
:1046D00037EFA5F020501E24106E21501F20116EC0
:1046E0000EC5D9F40FC5DAF410C5DEF411C5DDF43A
:1046F000200E22647EEFA3F080EFA3F086EFA3F0FC
:10470000000E146E200E136E8AEFA3F0000E146ECE
:10471000240E136E20EE0BF01C50D9261D50DA2209
:1047200013C5DFF4000E37EFA5F020501E24106EE5
:1047300021501F20116E10C5F6F411C5F7F4000EBC
:10474000F86E250EF76403D00800F55005D0F6C4C6
:10475000E9F4F7C4EAF4EF50226E204A212A210E30
:104760002260B5EFA3F0B7EFA3F0B9EFA3F0CFEF5E
:10477000A4F02F0E2218D8B4C0EFA3F0C2EFA3F01C
:10478000CFEFA3F05C0E2218D8A4C9EFA3F0CBEFB3
:10479000A3F00FEFA4F0CFEFA3F0204A212A20507E
:1047A0001E24106E21501F20116E10C5F6F411C585
:1047B000F7F4000EF86E250EF76403D00800F550EC
:1047C00005D0F6C4E9F4F7C4EAF4EF502F0AD8B4E0
:1047D000ECEFA3F0EEEFA3F0CDEFA3F020501E24FA
:1047E000106E21501F20116E10C5F6F411C5F7F49C
:1047F000000EF86E250EF76403D00800F55005D0C2
:10480000F6C4E9F4F7C4EAF4EF505C0AD8B40BEF4D
:10481000A4F00DEFA4F0CDEFA3F0CFEFA4F02E0E97
:104820002218D8B416EFA4F018EFA4F023EFA4F0E8
:1048300018501A5C19501B58D8A021EFA4F023EF90
:10484000A4F042EFA4F00B0E18181910D8B42BEFF7
:10485000A4F02DEFA4F067EFA3F02E0E2218D8B429
:1048600034EFA4F036EFA4F038EFA4F067EFA3F034
:10487000000E1B6E080E1A6E000E196E0B0E186ECF
:1048800095EFA3F022508EECF6F004500510D8B44A
:104890004CEFA4F04EEFA4F09DEFA4F020501E24A6
:1048A000106E21501F20116E10C5F6F411C5F7F4DB
:1048B000000EF86E250EF76403D00800F55005D001
:1048C000F6C4E9F4F7C4EAF4EF50176E204A212A3F
:1048D0001750ECECEEF004500510D8B472EFA4F0D1
:1048E00074EFA4F067EFA3F0FF0E1824106EFF0E14
:1048F0001920116E10501A5C11501B58D8A083EF6C
:10490000A4F085EFA4F087EFA4F067EFA3F01A50AE
:104910001C24D96E1B501D20DA6E22C5DFF41A4A02
:104920001B2A1A501C24D96E1B501D20DA6E17C585
:10493000DFF41A4A1B2A95EFA3F0F90E046EFD0E60
:10494000056E22C506F5076A95ECF8F004500510CF
:10495000D8B4ADEFA4F0AFEFA4F0B1EFA4F067EFDF
:10496000A3F0600E2264B7EFA4F0B9EFA4F0C3EF98
:10497000A4F07B0E2260BFEFA4F0C1EFA4F0C3EF60
:10498000A4F0200E225E1A501C24D96E1B501D204C
:10499000DA6E22C5DFF41A4A1B2A95EFA3F02050E5
:1049A0001E24106E21501F20116E0EC5D9F40FC5A4
:1049B000DAF410C5DEF411C5DDF41A501B10D8A4CA
:1049C000E4EFA4F0E6EFA4F0E8EFA4F067EFA3F0C3
:1049D0001CC5D9F41DC5DAF4E50EDE18D8A4F3EF32
:1049E000A4F0F5EFA4F0FBEFA4F01CC5D9F41DC5AD
:1049F000DAF4050EDF6E200E226401EFA5F003EF5E
